{
  "contractName": "RAJToken",
  "abi": [
    {
      "constant": true,
      "inputs": [],
      "name": "name",
      "outputs": [
        {
          "name": "",
          "type": "string"
        }
      ],
      "payable": false,
      "stateMutability": "view",
      "type": "function"
    },
    {
      "constant": true,
      "inputs": [],
      "name": "totalSupply",
      "outputs": [
        {
          "name": "",
          "type": "uint256"
        }
      ],
      "payable": false,
      "stateMutability": "view",
      "type": "function"
    },
    {
      "constant": true,
      "inputs": [
        {
          "name": "",
          "type": "address"
        }
      ],
      "name": "balanceOf",
      "outputs": [
        {
          "name": "",
          "type": "uint256"
        }
      ],
      "payable": false,
      "stateMutability": "view",
      "type": "function"
    },
    {
      "constant": true,
      "inputs": [],
      "name": "symbol",
      "outputs": [
        {
          "name": "",
          "type": "string"
        }
      ],
      "payable": false,
      "stateMutability": "view",
      "type": "function"
    },
    {
      "inputs": [
        {
          "name": "_name",
          "type": "string"
        },
        {
          "name": "_symbol",
          "type": "string"
        },
        {
          "name": "_initialSupply",
          "type": "uint256"
        }
      ],
      "payable": false,
      "stateMutability": "nonpayable",
      "type": "constructor"
    },
    {
      "anonymous": false,
      "inputs": [
        {
          "indexed": true,
          "name": "_from",
          "type": "address"
        },
        {
          "indexed": true,
          "name": "_to",
          "type": "address"
        },
        {
          "indexed": false,
          "name": "_value",
          "type": "uint256"
        }
      ],
      "name": "Transfer",
      "type": "event"
    },
    {
      "constant": false,
      "inputs": [
        {
          "name": "_to",
          "type": "address"
        },
        {
          "name": "_value",
          "type": "uint256"
        }
      ],
      "name": "transfer",
      "outputs": [
        {
          "name": "success",
          "type": "bool"
        }
      ],
      "payable": false,
      "stateMutability": "nonpayable",
      "type": "function"
    }
  ],
  "bytecode": "0x608060405234801561001057600080fd5b5060405161076638038061076683398101806040528101908080518201929190602001805182019291906020018051906020019092919050505080600360003373ffffffffffffffffffffffffffffffffffffffff1673ffffffffffffffffffffffffffffffffffffffff168152602001908152602001600020819055508060028190555082600090805190602001906100ab9291906100cb565b5081600190805190602001906100c29291906100cb565b50505050610170565b828054600181600116156101000203166002900490600052602060002090601f016020900481019282601f1061010c57805160ff191683800117855561013a565b8280016001018555821561013a579182015b8281111561013957825182559160200191906001019061011e565b5b509050610147919061014b565b5090565b61016d91905b80821115610169576000816000905550600101610151565b5090565b90565b6105e78061017f6000396000f30060806040526004361061006d576000357c0100000000000000000000000000000000000000000000000000000000900463ffffffff16806306fdde031461007257806318160ddd1461010257806370a082311461012d57806395d89b4114610184578063a9059cbb14610214575b600080fd5b34801561007e57600080fd5b50610087610279565b6040518080602001828103825283818151815260200191508051906020019080838360005b838110156100c75780820151818401526020810190506100ac565b50505050905090810190601f1680156100f45780820380516001836020036101000a031916815260200191505b509250505060405180910390f35b34801561010e57600080fd5b50610117610317565b6040518082815260200191505060405180910390f35b34801561013957600080fd5b5061016e600480360381019080803573ffffffffffffffffffffffffffffffffffffffff16906020019092919050505061031d565b6040518082815260200191505060405180910390f35b34801561019057600080fd5b50610199610335565b6040518080602001828103825283818151815260200191508051906020019080838360005b838110156101d95780820151818401526020810190506101be565b50505050905090810190601f1680156102065780820380516001836020036101000a031916815260200191505b509250505060405180910390f35b34801561022057600080fd5b5061025f600480360381019080803573ffffffffffffffffffffffffffffffffffffffff169060200190929190803590602001909291905050506103d3565b604051808215151515815260200191505060405180910390f35b60008054600181600116156101000203166002900480601f01602080910402602001604051908101604052809291908181526020018280546001816001161561010002031660029004801561030f5780601f106102e45761010080835404028352916020019161030f565b820191906000526020600020905b8154815290600101906020018083116102f257829003601f168201915b505050505081565b60025481565b60036020528060005260406000206000915090505481565b60018054600181600116156101000203166002900480601f0160208091040260200160405190810160405280929190818152602001828054600181600116156101000203166002900480156103cb5780601f106103a0576101008083540402835291602001916103cb565b820191906000526020600020905b8154815290600101906020018083116103ae57829003601f168201915b505050505081565b600081600360003373ffffffffffffffffffffffffffffffffffffffff1673ffffffffffffffffffffffffffffffffffffffff16815260200190815260200160002054101515156104b2576040517f08c379a00000000000000000000000000000000000000000000000000000000081526004018080602001828103825260268152602001807f53656e64657220646f65736e277420686176652073756666696369656e74206281526020017f616c616e6365000000000000000000000000000000000000000000000000000081525060400191505060405180910390fd5b81600360003373ffffffffffffffffffffffffffffffffffffffff1673ffffffffffffffffffffffffffffffffffffffff1681526020019081526020016000206000828254039250508190555081600360008573ffffffffffffffffffffffffffffffffffffffff1673ffffffffffffffffffffffffffffffffffffffff168152602001908152602001600020600082825401925050819055508273ffffffffffffffffffffffffffffffffffffffff163373ffffffffffffffffffffffffffffffffffffffff167fddf252ad1be2c89b69c2b068fc378daa952ba7f163c4a11628f55a4df523b3ef846040518082815260200191505060405180910390a360019050929150505600a165627a7a72305820c100876febf768fe7e25fb58db5ce9e2528a3f817c201ff8dc2147c69f75a5840029",
  "source": "//SPDX-License-Identifier:MIT\npragma solidity ^0.4.22;\n\ncontract RAJToken{\n    //Name\n    string public name;\n    //Symbol\n    string public symbol;\n    \n    //Constructor\n    //Set the total number of token\n    //Read the total number of token\n    uint256 public totalSupply;\n\n    // function RAJToken() public{\n    //     totalSupply = 10000000;\n    // }\n\n    event Transfer(address indexed _from, address indexed _to, uint256 _value);\n\n    function RAJToken(string memory _name, string memory _symbol, uint256 _initialSupply) public{\n        balanceOf[msg.sender] = _initialSupply;\n        totalSupply = _initialSupply;\n        name = _name;\n        symbol = _symbol;\n    }\n\n    //Keep track of balances of each amount, mapping is like an associative array (Key value store)\n    mapping(address => uint256) public balanceOf;\n\n    //Transfer\n    function transfer(address _to, uint256 _value) public returns(bool success){\n    //Exception if account doen't have enough value\n    require(balanceOf[msg.sender] >= _value, \"Sender doesn't have sufficient balance\");\n    balanceOf[msg.sender] -= _value;\n    balanceOf[_to] += _value;\n    //Trigers Transfer event\n    emit Transfer(msg.sender, _to, _value);\n    //Returns a boolean\n    return true;\n    }\n\n}",
  "sourcePath": "/home/hp/RAJEEB/Rajeeb/Rajeeb_Github_Repo/ICO Crowd Sale/contracts/RAJToken.sol",
  "compiler": {
    "name": "solc",
    "version": "0.4.22+commit.4cb486ee.Emscripten.clang"
  },
  "schemaVersion": "3.4.6",
  "updatedAt": "2022-08-18T20:55:56.935Z",
  "networkType": "ethereum",
  "devdoc": {
    "methods": {}
  },
  "userdoc": {
    "methods": {}
  }
}